{
  "contractName": "FoodCart",
  "abi": [
    {
      "constant": true,
      "inputs": [
        {
          "name": "",
          "type": "uint8"
        }
      ],
      "name": "foodItems",
      "outputs": [
        {
          "name": "name",
          "type": "string"
        },
        {
          "name": "sku",
          "type": "uint8"
        },
        {
          "name": "price",
          "type": "uint16"
        },
        {
          "name": "state",
          "type": "uint8"
        },
        {
          "name": "foodItemExist",
          "type": "bool"
        }
      ],
      "payable": false,
      "stateMutability": "view",
      "type": "function"
    },
    {
      "inputs": [],
      "payable": false,
      "stateMutability": "nonpayable",
      "type": "constructor"
    },
    {
      "payable": true,
      "stateMutability": "payable",
      "type": "fallback"
    },
    {
      "anonymous": false,
      "inputs": [
        {
          "indexed": false,
          "name": "name",
          "type": "string"
        },
        {
          "indexed": false,
          "name": "sku",
          "type": "uint8"
        },
        {
          "indexed": false,
          "name": "price",
          "type": "uint16"
        },
        {
          "indexed": false,
          "name": "state",
          "type": "uint8"
        },
        {
          "indexed": false,
          "name": "foodItemExist",
          "type": "bool"
        }
      ],
      "name": "ForSale",
      "type": "event"
    },
    {
      "anonymous": false,
      "inputs": [
        {
          "indexed": false,
          "name": "name",
          "type": "string"
        },
        {
          "indexed": false,
          "name": "sku",
          "type": "uint8"
        },
        {
          "indexed": false,
          "name": "price",
          "type": "uint16"
        },
        {
          "indexed": false,
          "name": "state",
          "type": "uint8"
        },
        {
          "indexed": false,
          "name": "foodItemExist",
          "type": "bool"
        }
      ],
      "name": "Sold",
      "type": "event"
    },
    {
      "constant": false,
      "inputs": [
        {
          "name": "_name",
          "type": "string"
        },
        {
          "name": "_price",
          "type": "uint16"
        }
      ],
      "name": "addFoodItem",
      "outputs": [],
      "payable": false,
      "stateMutability": "nonpayable",
      "type": "function"
    },
    {
      "constant": false,
      "inputs": [
        {
          "name": "_sku",
          "type": "uint8"
        }
      ],
      "name": "buyFoodItem",
      "outputs": [],
      "payable": true,
      "stateMutability": "payable",
      "type": "function"
    },
    {
      "constant": true,
      "inputs": [
        {
          "name": "_sku",
          "type": "uint8"
        }
      ],
      "name": "fetchFoodItem",
      "outputs": [
        {
          "name": "name",
          "type": "string"
        },
        {
          "name": "sku",
          "type": "uint8"
        },
        {
          "name": "price",
          "type": "uint16"
        },
        {
          "name": "state",
          "type": "uint8"
        },
        {
          "name": "foodItemExist",
          "type": "bool"
        }
      ],
      "payable": false,
      "stateMutability": "view",
      "type": "function"
    }
  ],
  "bytecode": "0x608060405234801561001057600080fd5b50336000806101000a81548173ffffffffffffffffffffffffffffffffffffffff021916908373ffffffffffffffffffffffffffffffffffffffff16021790555060008060146101000a81548160ff021916908360ff160217905550610b978061007b6000396000f300608060405260043610610062576000357c0100000000000000000000000000000000000000000000000000000000900463ffffffff1680631965fe351461006457806362f2f317146100db5780638d96e733146101b8578063a3df62d71461029d575b005b34801561007057600080fd5b506100d9600480360381019080803590602001908201803590602001908080601f0160208091040260200160405190810160405280939291908181526020018383808284378201915050505050509192919290803561ffff1690602001909291905050506102c0565b005b3480156100e757600080fd5b50610109600480360381019080803560ff169060200190929190505050610502565b60405180806020018660ff1660ff1681526020018561ffff1661ffff1681526020018460ff1660ff16815260200183151515158152602001828103825287818151815260200191508051906020019080838360005b8381101561017957808201518184015260208101905061015e565b50505050905090810190601f1680156101a65780820380516001836020036101000a031916815260200191505b50965050505050505060405180910390f35b3480156101c457600080fd5b506101e6600480360381019080803560ff1690602001909291905050506106cc565b60405180806020018660ff1660ff1681526020018561ffff1661ffff16815260200184600181111561021457fe5b60ff16815260200183151515158152602001828103825287818151815260200191508051906020019080838360005b8381101561025e578082015181840152602081019050610243565b50505050905090810190601f16801561028b5780820380516001836020036101000a031916815260200191505b50965050505050505060405180910390f35b6102be600480360381019080803560ff1690602001909291905050506107cf565b005b60a060405190810160405280838152602001600060149054906101000a900460ff1660ff1681526020018261ffff1681526020016000600181111561030157fe5b815260200160011515815250600160008060149054906101000a900460ff1660ff1660ff1681526020019081526020016000206000820151816000019080519060200190610350929190610ac6565b5060208201518160010160006101000a81548160ff021916908360ff16021790555060408201518160010160016101000a81548161ffff021916908361ffff16021790555060608201518160010160036101000a81548160ff021916908360018111156103b957fe5b021790555060808201518160010160046101000a81548160ff0219169083151502179055509050507fb7dc24968c35d5b9a67f3842cf7d89fa46d60605bc49d559cf0656d5dac126bb82600060149054906101000a900460ff16836000600181111561042157fe5b600160405180806020018660ff1660ff1681526020018561ffff1661ffff1681526020018460ff1660ff16815260200183151515158152602001828103825287818151815260200191508051906020019080838360005b83811015610493578082015181840152602081019050610478565b50505050905090810190601f1680156104c05780820380516001836020036101000a031916815260200191505b50965050505050505060405180910390a16001600060149054906101000a900460ff1601600060146101000a81548160ff021916908360ff1602179055505050565b606060008060008085600160008260ff1660ff16815260200190815260200160002060010160049054906101000a900460ff16151561054057600080fd5b600160008860ff1660ff1681526020019081526020016000206000018054600181600116156101000203166002900480601f0160208091040260200160405190810160405280929190818152602001828054600181600116156101000203166002900480156105f05780601f106105c5576101008083540402835291602001916105f0565b820191906000526020600020905b8154815290600101906020018083116105d357829003601f168201915b50505050509550600160008860ff1660ff16815260200190815260200160002060010160009054906101000a900460ff169450600160008860ff1660ff16815260200190815260200160002060010160019054906101000a900461ffff169350600160008860ff1660ff16815260200190815260200160002060010160039054906101000a900460ff16600181111561068557fe5b9250600160008860ff1660ff16815260200190815260200160002060010160049054906101000a900460ff1691508585858585955095509550955095505091939590929450565b6001602052806000526040600020600091509050806000018054600181600116156101000203166002900480601f0160208091040260200160405190810160405280929190818152602001828054600181600116156101000203166002900480156107785780601f1061074d57610100808354040283529160200191610778565b820191906000526020600020905b81548152906001019060200180831161075b57829003601f168201915b5050505050908060010160009054906101000a900460ff16908060010160019054906101000a900461ffff16908060010160039054906101000a900460ff16908060010160049054906101000a900460ff16905085565b80600160008260ff1660ff16815260200190815260200160002060010160049054906101000a900460ff16151561080557600080fd5b816000600181111561081357fe5b600160008360ff1660ff16815260200190815260200160002060010160039054906101000a900460ff16600181111561084857fe5b14151561085457600080fd5b600160008460ff1660ff16815260200190815260200160002060010160019054906101000a900461ffff168061ffff16341015151561089257600080fd5b60018060008660ff1660ff16815260200190815260200160002060010160036101000a81548160ff021916908360018111156108ca57fe5b02179055506000600160008660ff1660ff16815260200190815260200160002060010160046101000a81548160ff0219169083151502179055507fbdae531150535661df86d11bfeae60181a0083647dd702bd6c6eb53ca1c73ec7600160008660ff1660ff168152602001908152602001600020600001600160008760ff1660ff16815260200190815260200160002060010160009054906101000a900460ff16600160008860ff1660ff16815260200190815260200160002060010160019054906101000a900461ffff16600160008960ff1660ff16815260200190815260200160002060010160039054906101000a900460ff1660018111156109cb57fe5b600160008a60ff1660ff16815260200190815260200160002060010160049054906101000a900460ff1660405180806020018660ff1660ff1681526020018561ffff1661ffff1681526020018460ff1660ff16815260200183151515158152602001828103825287818154600181600116156101000203166002900481526020019150805460018160011615610100020316600290048015610aae5780601f10610a8357610100808354040283529160200191610aae565b820191906000526020600020905b815481529060010190602001808311610a9157829003601f168201915b5050965050505050505060405180910390a150505050565b828054600181600116156101000203166002900490600052602060002090601f016020900481019282601f10610b0757805160ff1916838001178555610b35565b82800160010185558215610b35579182015b82811115610b34578251825591602001919060010190610b19565b5b509050610b429190610b46565b5090565b610b6891905b80821115610b64576000816000905550600101610b4c565b5090565b905600a165627a7a72305820f3fef96c063a16926d819ced9eb6fd00283b878db37c4a665b8fd16f7a083a5c0029",
  "source": "pragma solidity ^0.4.24;\n\ncontract FoodCart{\n\t/* set owner of contract */\n\taddress owner;\n\n\t/* a variable to track the most recent sku of a food item */\n\tuint8 skuCount; \n\n\t/* an enum to store food item state */\n\tenum State {ForSale, Sold}\n\n\t/* add event to emit when a new food item is added to cart */\n\tevent ForSale(string name, uint8 sku, uint16 price, uint8 state, bool foodItemExist);\n\n\t/* add event to emit when a new food item is sold */\n\tevent Sold(string name, uint8 sku, uint16 price, uint8 state, bool foodItemExist);\n\n\t/* a struct to store details of a food item */\n\tstruct FoodItem {\n\t\tstring name;\n\t\tuint8 sku;\n\t\tuint16 price;\n\t\tState state;\n\t\tbool foodItemExist;\n\t}\n\n\t/* a map that maps sku to food item */\n\tmapping (uint8 => FoodItem) public foodItems;\n\t\n\t/* a modifier to check that food item exist */\n\tmodifier doesFoodItemExist(uint8 _sku){\n\t\trequire(foodItems[_sku].foodItemExist);\n\t\t_;\n\t}\n\t\n\t/* a modifier to check that an item is forsale */\n\tmodifier isFoodItemForSale(uint8 _sku){\n\t\trequire(foodItems[_sku].state == State.ForSale);\n\t\t_;\n\t}\n\n\t/* a modifier to check that the right price is paid for the food item */\n\tmodifier hasBuyerPaidEnough(uint16 _price){\n\t\trequire(msg.value >= _price);\n\t\t_;\n\t}\n\n\tconstructor() public {\n\t\towner = msg.sender;\n\t\tskuCount = 0;\n\t}\n\n\t\n\tfunction addFoodItem (string _name, uint16 _price) public {\n\t\tfoodItems[skuCount] = FoodItem({name: _name, sku: skuCount, price: _price, state: State.ForSale, foodItemExist: true});\n\t\temit ForSale(_name, skuCount , _price, uint8(State.ForSale), true);\n\t\tskuCount = skuCount + 1;\n\t}  \n\n\tfunction buyFoodItem (uint8 _sku)\n\tpayable\n\tpublic\n\tdoesFoodItemExist(_sku)\n\tisFoodItemForSale(_sku)\n\thasBuyerPaidEnough(foodItems[_sku].price)\n\t{\n\t\tfoodItems[_sku].state = State.Sold;\n\t\tfoodItems[_sku].foodItemExist = false;\n\t\temit Sold(foodItems[_sku].name, foodItems[_sku].sku, foodItems[_sku].price, uint8(foodItems[_sku].state), foodItems[_sku].foodItemExist);\n\t}\n\n\tfunction fetchFoodItem(uint8 _sku) \n\tdoesFoodItemExist(_sku)\n\tpublic \n\tview \n\treturns (string name, uint8 sku, uint16 price, uint8 state, bool foodItemExist){\n\t\tname = foodItems[_sku].name;\n\t\tsku = foodItems[_sku].sku;\n\t\tprice = foodItems[_sku].price;\n\t\tstate = uint8(foodItems[_sku].state);\n\t\tfoodItemExist = foodItems[_sku].foodItemExist;\n\n\t\treturn (name, sku, price, state, foodItemExist);\n\t}\n\n\tfunction () public payable {\n\n\t}\n}\n",
  "sourcePath": "/home/vnurture/Music/FoodCartTutorial/contracts/FoodCart.sol",
  "compiler": {
    "name": "solc",
    "version": "0.4.26+commit.4563c3fc.Emscripten.clang"
  },
  "schemaVersion": "3.0.9",
  "updatedAt": "2019-05-28T10:32:46.663Z",
  "devdoc": {
    "methods": {}
  },
  "userdoc": {
    "methods": {}
  }
}